{"abi":[{"type":"constructor","inputs":[],"stateMutability":"nonpayable"},{"type":"function","name":"approve","inputs":[{"name":"to","type":"address","internalType":"address"},{"name":"tokenId","type":"uint256","internalType":"uint256"}],"outputs":[],"stateMutability":"nonpayable"},{"type":"function","name":"balanceOf","inputs":[{"name":"owner","type":"address","internalType":"address"}],"outputs":[{"name":"","type":"uint256","internalType":"uint256"}],"stateMutability":"view"},{"type":"function","name":"getApproved","inputs":[{"name":"tokenId","type":"uint256","internalType":"uint256"}],"outputs":[{"name":"","type":"address","internalType":"address"}],"stateMutability":"view"},{"type":"function","name":"getGraveHeights","inputs":[{"name":"tokenId","type":"uint256","internalType":"uint256"}],"outputs":[{"name":"","type":"uint256[]","internalType":"uint256[]"}],"stateMutability":"view"},{"type":"function","name":"isApprovedForAll","inputs":[{"name":"owner","type":"address","internalType":"address"},{"name":"operator","type":"address","internalType":"address"}],"outputs":[{"name":"","type":"bool","internalType":"bool"}],"stateMutability":"view"},{"type":"function","name":"maxSupply","inputs":[],"outputs":[{"name":"","type":"uint256","internalType":"uint256"}],"stateMutability":"view"},{"type":"function","name":"mintGrave","inputs":[],"outputs":[{"name":"","type":"uint256","internalType":"uint256"}],"stateMutability":"nonpayable"},{"type":"function","name":"mintGraveFor","inputs":[{"name":"to","type":"address","internalType":"address"}],"outputs":[{"name":"","type":"uint256","internalType":"uint256"}],"stateMutability":"nonpayable"},{"type":"function","name":"mintingEnabled","inputs":[],"outputs":[{"name":"","type":"bool","internalType":"bool"}],"stateMutability":"view"},{"type":"function","name":"name","inputs":[],"outputs":[{"name":"","type":"string","internalType":"string"}],"stateMutability":"view"},{"type":"function","name":"owner","inputs":[],"outputs":[{"name":"","type":"address","internalType":"address"}],"stateMutability":"view"},{"type":"function","name":"ownerOf","inputs":[{"name":"tokenId","type":"uint256","internalType":"uint256"}],"outputs":[{"name":"","type":"address","internalType":"address"}],"stateMutability":"view"},{"type":"function","name":"recordHeight","inputs":[{"name":"tokenId","type":"uint256","internalType":"uint256"},{"name":"height","type":"uint256","internalType":"uint256"}],"outputs":[],"stateMutability":"nonpayable"},{"type":"function","name":"renounceOwnership","inputs":[],"outputs":[],"stateMutability":"nonpayable"},{"type":"function","name":"royaltyInfo","inputs":[{"name":"tokenId","type":"uint256","internalType":"uint256"},{"name":"salePrice","type":"uint256","internalType":"uint256"}],"outputs":[{"name":"","type":"address","internalType":"address"},{"name":"","type":"uint256","internalType":"uint256"}],"stateMutability":"view"},{"type":"function","name":"royaltyPercentage","inputs":[],"outputs":[{"name":"","type":"uint256","internalType":"uint256"}],"stateMutability":"view"},{"type":"function","name":"royaltyReceiver","inputs":[],"outputs":[{"name":"","type":"address","internalType":"address"}],"stateMutability":"view"},{"type":"function","name":"safeTransferFrom","inputs":[{"name":"from","type":"address","internalType":"address"},{"name":"to","type":"address","internalType":"address"},{"name":"tokenId","type":"uint256","internalType":"uint256"}],"outputs":[],"stateMutability":"nonpayable"},{"type":"function","name":"safeTransferFrom","inputs":[{"name":"from","type":"address","internalType":"address"},{"name":"to","type":"address","internalType":"address"},{"name":"tokenId","type":"uint256","internalType":"uint256"},{"name":"data","type":"bytes","internalType":"bytes"}],"outputs":[],"stateMutability":"nonpayable"},{"type":"function","name":"setApprovalForAll","inputs":[{"name":"operator","type":"address","internalType":"address"},{"name":"approved","type":"bool","internalType":"bool"}],"outputs":[],"stateMutability":"nonpayable"},{"type":"function","name":"setBaseURI","inputs":[{"name":"baseURI","type":"string","internalType":"string"}],"outputs":[],"stateMutability":"nonpayable"},{"type":"function","name":"setMaxSupply","inputs":[{"name":"newMaxSupply","type":"uint256","internalType":"uint256"}],"outputs":[],"stateMutability":"nonpayable"},{"type":"function","name":"setMinter","inputs":[{"name":"minter","type":"address","internalType":"address"},{"name":"status","type":"bool","internalType":"bool"}],"outputs":[],"stateMutability":"nonpayable"},{"type":"function","name":"setMintingEnabled","inputs":[{"name":"enabled","type":"bool","internalType":"bool"}],"outputs":[],"stateMutability":"nonpayable"},{"type":"function","name":"setRoyaltyInfo","inputs":[{"name":"receiver","type":"address","internalType":"address"},{"name":"percentage","type":"uint256","internalType":"uint256"}],"outputs":[],"stateMutability":"nonpayable"},{"type":"function","name":"supportsInterface","inputs":[{"name":"interfaceId","type":"bytes4","internalType":"bytes4"}],"outputs":[{"name":"","type":"bool","internalType":"bool"}],"stateMutability":"view"},{"type":"function","name":"symbol","inputs":[],"outputs":[{"name":"","type":"string","internalType":"string"}],"stateMutability":"view"},{"type":"function","name":"tokenURI","inputs":[{"name":"tokenId","type":"uint256","internalType":"uint256"}],"outputs":[{"name":"","type":"string","internalType":"string"}],"stateMutability":"view"},{"type":"function","name":"transferFrom","inputs":[{"name":"from","type":"address","internalType":"address"},{"name":"to","type":"address","internalType":"address"},{"name":"tokenId","type":"uint256","internalType":"uint256"}],"outputs":[],"stateMutability":"nonpayable"},{"type":"function","name":"transferOwnership","inputs":[{"name":"newOwner","type":"address","internalType":"address"}],"outputs":[],"stateMutability":"nonpayable"},{"type":"function","name":"withdraw","inputs":[],"outputs":[],"stateMutability":"nonpayable"},{"type":"event","name":"Approval","inputs":[{"name":"owner","type":"address","indexed":true,"internalType":"address"},{"name":"approved","type":"address","indexed":true,"internalType":"address"},{"name":"tokenId","type":"uint256","indexed":true,"internalType":"uint256"}],"anonymous":false},{"type":"event","name":"ApprovalForAll","inputs":[{"name":"owner","type":"address","indexed":true,"internalType":"address"},{"name":"operator","type":"address","indexed":true,"internalType":"address"},{"name":"approved","type":"bool","indexed":false,"internalType":"bool"}],"anonymous":false},{"type":"event","name":"BaseURIChanged","inputs":[{"name":"newBaseURI","type":"string","indexed":false,"internalType":"string"}],"anonymous":false},{"type":"event","name":"GraveMinted","inputs":[{"name":"tokenId","type":"uint256","indexed":true,"internalType":"uint256"},{"name":"owner","type":"address","indexed":true,"internalType":"address"}],"anonymous":false},{"type":"event","name":"HeightRecorded","inputs":[{"name":"tokenId","type":"uint256","indexed":true,"internalType":"uint256"},{"name":"height","type":"uint256","indexed":false,"internalType":"uint256"}],"anonymous":false},{"type":"event","name":"MaxSupplyChanged","inputs":[{"name":"newMaxSupply","type":"uint256","indexed":false,"internalType":"uint256"}],"anonymous":false},{"type":"event","name":"MinterStatusChanged","inputs":[{"name":"minter","type":"address","indexed":false,"internalType":"address"},{"name":"status","type":"bool","indexed":false,"internalType":"bool"}],"anonymous":false},{"type":"event","name":"MintingStatusChanged","inputs":[{"name":"enabled","type":"bool","indexed":false,"internalType":"bool"}],"anonymous":false},{"type":"event","name":"OwnershipTransferred","inputs":[{"name":"previousOwner","type":"address","indexed":true,"internalType":"address"},{"name":"newOwner","type":"address","indexed":true,"internalType":"address"}],"anonymous":false},{"type":"event","name":"RoyaltyInfoChanged","inputs":[{"name":"receiver","type":"address","indexed":false,"internalType":"address"},{"name":"percentage","type":"uint256","indexed":false,"internalType":"uint256"}],"anonymous":false},{"type":"event","name":"Transfer","inputs":[{"name":"from","type":"address","indexed":true,"internalType":"address"},{"name":"to","type":"address","indexed":true,"internalType":"address"},{"name":"tokenId","type":"uint256","indexed":true,"internalType":"uint256"}],"anonymous":false},{"type":"error","name":"ERC721IncorrectOwner","inputs":[{"name":"sender","type":"address","internalType":"address"},{"name":"tokenId","type":"uint256","internalType":"uint256"},{"name":"owner","type":"address","internalType":"address"}]},{"type":"error","name":"ERC721InsufficientApproval","inputs":[{"name":"operator","type":"address","internalType":"address"},{"name":"tokenId","type":"uint256","internalType":"uint256"}]},{"type":"error","name":"ERC721InvalidApprover","inputs":[{"name":"approver","type":"address","internalType":"address"}]},{"type":"error","name":"ERC721InvalidOperator","inputs":[{"name":"operator","type":"address","internalType":"address"}]},{"type":"error","name":"ERC721InvalidOwner","inputs":[{"name":"owner","type":"address","internalType":"address"}]},{"type":"error","name":"ERC721InvalidReceiver","inputs":[{"name":"receiver","type":"address","internalType":"address"}]},{"type":"error","name":"ERC721InvalidSender","inputs":[{"name":"sender","type":"address","internalType":"address"}]},{"type":"error","name":"ERC721NonexistentToken","inputs":[{"name":"tokenId","type":"uint256","internalType":"uint256"}]},{"type":"error","name":"InvalidTokenId","inputs":[]},{"type":"error","name":"MintToZeroAddress","inputs":[]},{"type":"error","name":"MintingDisabled","inputs":[]},{"type":"error","name":"OwnableInvalidOwner","inputs":[{"name":"owner","type":"address","internalType":"address"}]},{"type":"error","name":"OwnableUnauthorizedAccount","inputs":[{"name":"account","type":"address","internalType":"address"}]},{"type":"error","name":"TokenDoesNotExist","inputs":[{"name":"tokenId","type":"uint256","internalType":"uint256"}]}],"bytecode":{"object":"0x6080604052600a805460ff19166001179055612710600b5560fa600e5534801562000028575f80fd5b50336040518060400160405280600881526020016748616b617463686960c01b8152506040518060400160405280600481526020016348414b4160e01b815250815f9081620000789190620001e8565b506001620000878282620001e8565b5050506001600160a01b038116620000b857604051631e4fbdf760e01b81525f600482015260240160405180910390fd5b620000c381620000f7565b50600d80546001600160a01b031916339081179091555f908152600c60205260409020805460ff19166001179055620002b0565b600680546001600160a01b038381166001600160a01b0319831681179093556040519116919082907f8be0079c531659141344cd1fd0a4f28419497f9722a3daafe3b4186f6b6457e0905f90a35050565b634e487b7160e01b5f52604160045260245ffd5b600181811c908216806200017157607f821691505b6020821081036200019057634e487b7160e01b5f52602260045260245ffd5b50919050565b601f821115620001e3575f81815260208120601f850160051c81016020861015620001be5750805b601f850160051c820191505b81811015620001df57828155600101620001ca565b5050505b505050565b81516001600160401b0381111562000204576200020462000148565b6200021c816200021584546200015c565b8462000196565b602080601f83116001811462000252575f84156200023a5750858301515b5f19600386901b1c1916600185901b178555620001df565b5f85815260208120601f198616915b82811015620002825788860151825594840194600190910190840162000261565b5085821015620002a057878501515f19600388901b60f8161c191681555b5050505050600190811b01905550565b611b1280620002be5f395ff3fe608060405234801561000f575f80fd5b50600436106101dc575f3560e01c80637a86eff611610109578063b88d4fde1161009e578063d6dbbb341161006e578063d6dbbb3414610404578063e2e784d514610417578063e985e9c51461042a578063f2fde38b1461043d575f80fd5b8063b88d4fde146103c2578063c87b56dd146103d5578063cf456ae7146103e8578063d5abeb01146103fb575f80fd5b806395d89b41116100d957806395d89b41146103875780639fbc87131461038f5780639fd6db12146103a2578063a22cb465146103af575f80fd5b80637a86eff6146103455780638a71bb2d146103655780638da5cb5b1461036e578063939b436b1461037f575f80fd5b80633ccfd60b1161017f5780636352211e1161014f5780636352211e146103045780636f8b44b01461031757806370a082311461032a578063715018a61461033d575f80fd5b80633ccfd60b146102c357806342842e0e146102cb5780634ea3871a146102de57806355f804b3146102f1575f80fd5b8063095ea7b3116101ba578063095ea7b314610248578063152f40331461025d57806323b872dd1461027e5780632a55205a14610291575f80fd5b806301ffc9a7146101e057806306fdde0314610208578063081812fc1461021d575b5f80fd5b6101f36101ee36600461155d565b610450565b60405190151581526020015b60405180910390f35b61021061047a565b6040516101ff91906115cc565b61023061022b3660046115de565b610509565b6040516001600160a01b0390911681526020016101ff565b61025b61025636600461160b565b610530565b005b61027061026b366004611633565b61053f565b6040519081526020016101ff565b61025b61028c36600461164c565b610689565b6102a461029f366004611685565b610712565b604080516001600160a01b0390931683526020830191909152016101ff565b61025b610780565b61025b6102d936600461164c565b6107d0565b61025b6102ec3660046116b4565b6107ef565b61025b6102ff366004611754565b61083f565b6102306103123660046115de565b610883565b61025b6103253660046115de565b61088d565b610270610338366004611633565b610932565b61025b610977565b6103586103533660046115de565b61098a565b6040516101ff9190611799565b610270600e5481565b6006546001600160a01b0316610230565b610270610a21565b610210610adf565b600d54610230906001600160a01b031681565b600a546101f39060ff1681565b61025b6103bd3660046117dc565b610aee565b61025b6103d036600461180d565b610af9565b6102106103e33660046115de565b610b11565b61025b6103f63660046117dc565b610b83565b610270600b5481565b61025b610412366004611685565b610bee565b61025b61042536600461160b565b610c8e565b6101f3610438366004611884565b610d41565b61025b61044b366004611633565b610d6e565b5f63152a902d60e11b6001600160e01b031983161480610474575061047482610dab565b92915050565b60605f8054610488906118ac565b80601f01602080910402602001604051908101604052809291908181526020018280546104b4906118ac565b80156104ff5780601f106104d6576101008083540402835291602001916104ff565b820191905f5260205f20905b8154815290600101906020018083116104e257829003601f168201915b5050505050905090565b5f61051382610dfa565b505f828152600460205260409020546001600160a01b0316610474565b61053b828233610e32565b5050565b335f908152600c602052604081205460ff1661059b5760405162461bcd60e51b8152602060048201526016602482015275139bdd08185d5d1a1bdc9a5e9959081d1bc81b5a5b9d60521b60448201526064015b60405180910390fd5b6001600160a01b0382166105c157604051622e076360e81b815260040160405180910390fd5b600a5460ff166105e45760405163af79b43760e01b815260040160405180910390fd5b600b546007541061062c5760405162461bcd60e51b815260206004820152601260248201527113585e081cdd5c1c1b1e481c995858da195960721b6044820152606401610592565b5f60075f815461063b906118f8565b9182905550905061064c8382610e3f565b6040516001600160a01b0384169082907f8e297ba97c365496615201bb0c3ec10b7d55cc976bd3503a2b0be8d0164dc410905f90a390505b919050565b6001600160a01b0382166106b257604051633250574960e11b81525f6004820152602401610592565b5f6106be838333610e58565b9050836001600160a01b0316816001600160a01b03161461070c576040516364283d7b60e01b81526001600160a01b0380861660048301526024820184905282166044820152606401610592565b50505050565b5f8281526002602052604081205481906001600160a01b031661074b5760405163c927e5bf60e01b815260048101859052602401610592565b600d54600e546001600160a01b03909116906127109061076b9086611910565b6107759190611927565b915091509250929050565b610788610f4a565b4761079b6006546001600160a01b031690565b6001600160a01b03166108fc8290811502906040515f60405180830381858888f1935050505015801561053b573d5f803e3d5ffd5b6107ea83838360405180602001604052805f815250610af9565b505050565b6107f7610f4a565b600a805460ff19168215159081179091556040519081527f41f386d449eec03c1c3b75bbba9c18df70aa19779ff47f68eab4b6a66fb399d4906020015b60405180910390a150565b610847610f4a565b6009610853828261198b565b507f5411e8ebf1636d9e83d5fc4900bf80cbac82e8790da2a4c94db4895e889eedf68160405161083491906115cc565b5f61047482610dfa565b610895610f4a565b6007548110156108fd5760405162461bcd60e51b815260206004820152602d60248201527f4e6577206d617820737570706c79206d757374206265203e3d2063757272656e60448201526c1d081d1bdad95b8818dbdd5b9d609a1b6064820152608401610592565b600b8190556040518181527f28a10a2e0b5582da7164754cb994f6214b8af6aa7f7e003305fbc09e7106c51390602001610834565b5f6001600160a01b03821661095c576040516322718ad960e21b81525f6004820152602401610592565b506001600160a01b03165f9081526003602052604090205490565b61097f610f4a565b6109885f610f77565b565b5f818152600260205260409020546060906001600160a01b03166109c45760405163c927e5bf60e01b815260048101839052602401610592565b5f8281526008602090815260409182902080548351818402810184019094528084529091830182828015610a1557602002820191905f5260205f20905b815481526020019060010190808311610a01575b50505050509050919050565b600a545f9060ff16610a465760405163af79b43760e01b815260040160405180910390fd5b600b5460075410610a8e5760405162461bcd60e51b815260206004820152601260248201527113585e081cdd5c1c1b1e481c995858da195960721b6044820152606401610592565b5f60075f8154610a9d906118f8565b91829055509050610aae3382610e3f565b604051339082907f8e297ba97c365496615201bb0c3ec10b7d55cc976bd3503a2b0be8d0164dc410905f90a3919050565b606060018054610488906118ac565b61053b338383610fc8565b610b04848484610689565b61070c3385858585611066565b5f818152600260205260409020546060906001600160a01b0316610b4b5760405163c927e5bf60e01b815260048101839052602401610592565b610b5361118e565b610b5c8361119d565b604051602001610b6d929190611a47565b6040516020818303038152906040529050919050565b610b8b610f4a565b6001600160a01b0382165f818152600c6020908152604091829020805460ff19168515159081179091558251938452908301527f3042b80e435ae46c334b2cfec51a66d64c9a8a8af4cd0c279a124c35a09e91dd91015b60405180910390a15050565b610bf6610f4a565b5f828152600260205260409020546001600160a01b0316610c2d5760405163c927e5bf60e01b815260048101839052602401610592565b5f828152600860209081526040808320805460018101825590845291909220018290555182907fadfcfaa0e61998c01ead2e039e17c7575fed9b3801042a973e6ed37b4855d67d90610c829084815260200190565b60405180910390a25050565b610c96610f4a565b6103e8811115610ce85760405162461bcd60e51b815260206004820152601c60248201527f50657263656e746167652063616e6e6f742065786365656420313025000000006044820152606401610592565b600d80546001600160a01b0319166001600160a01b038416908117909155600e82905560408051918252602082018390527f9a34ed0b60af20f68eb6e644a0613b180dce40e7ed0d3e9538f5f5fbcb8f343b9101610be2565b6001600160a01b039182165f90815260056020908152604080832093909416825291909152205460ff1690565b610d76610f4a565b6001600160a01b038116610d9f57604051631e4fbdf760e01b81525f6004820152602401610592565b610da881610f77565b50565b5f6001600160e01b031982166380ac58cd60e01b1480610ddb57506001600160e01b03198216635b5e139f60e01b145b8061047457506301ffc9a760e01b6001600160e01b0319831614610474565b5f818152600260205260408120546001600160a01b03168061047457604051637e27328960e01b815260048101849052602401610592565b6107ea838383600161122d565b61053b828260405180602001604052805f815250611331565b5f828152600260205260408120546001600160a01b0390811690831615610e8457610e84818486611348565b6001600160a01b03811615610ebe57610e9f5f855f8061122d565b6001600160a01b0381165f90815260036020526040902080545f190190555b6001600160a01b03851615610eec576001600160a01b0385165f908152600360205260409020805460010190555b5f8481526002602052604080822080546001600160a01b0319166001600160a01b0389811691821790925591518793918516917fddf252ad1be2c89b69c2b068fc378daa952ba7f163c4a11628f55a4df523b3ef91a4949350505050565b6006546001600160a01b031633146109885760405163118cdaa760e01b8152336004820152602401610592565b600680546001600160a01b038381166001600160a01b0319831681179093556040519116919082907f8be0079c531659141344cd1fd0a4f28419497f9722a3daafe3b4186f6b6457e0905f90a35050565b6001600160a01b038216610ffa57604051630b61174360e31b81526001600160a01b0383166004820152602401610592565b6001600160a01b038381165f81815260056020908152604080832094871680845294825291829020805460ff191686151590811790915591519182527f17307eab39ab6107e8899845ad3d59bd9653f200f220920489ca2b5937696c31910160405180910390a3505050565b6001600160a01b0383163b1561118757604051630a85bd0160e11b81526001600160a01b0384169063150b7a02906110a8908890889087908790600401611a85565b6020604051808303815f875af19250505080156110e2575060408051601f3d908101601f191682019092526110df91810190611ac1565b60015b611149573d80801561110f576040519150601f19603f3d011682016040523d82523d5f602084013e611114565b606091505b5080515f0361114157604051633250574960e11b81526001600160a01b0385166004820152602401610592565b805181602001fd5b6001600160e01b03198116630a85bd0160e11b1461118557604051633250574960e11b81526001600160a01b0385166004820152602401610592565b505b5050505050565b606060098054610488906118ac565b60605f6111a9836113ac565b60010190505f8167ffffffffffffffff8111156111c8576111c86116cd565b6040519080825280601f01601f1916602001820160405280156111f2576020820181803683370190505b5090508181016020015b5f19016f181899199a1a9b1b9c1cb0b131b232b360811b600a86061a8153600a85049450846111fc57509392505050565b808061124157506001600160a01b03821615155b15611302575f61125084610dfa565b90506001600160a01b0383161580159061127c5750826001600160a01b0316816001600160a01b031614155b801561128f575061128d8184610d41565b155b156112b85760405163a9fbf51f60e01b81526001600160a01b0384166004820152602401610592565b81156113005783856001600160a01b0316826001600160a01b03167f8c5be1e5ebec7d5bd14f71427d1e84f3dd0314c0f7b2291e5b200ac8c7c3b92560405160405180910390a45b505b50505f90815260046020526040902080546001600160a01b0319166001600160a01b0392909216919091179055565b61133b8383611483565b6107ea335f858585611066565b6113538383836114e4565b6107ea576001600160a01b03831661138157604051637e27328960e01b815260048101829052602401610592565b60405163177e802f60e01b81526001600160a01b038316600482015260248101829052604401610592565b5f8072184f03e93ff9f4daa797ed6e38ed64bf6a1f0160401b83106113ea5772184f03e93ff9f4daa797ed6e38ed64bf6a1f0160401b830492506040015b6d04ee2d6d415b85acef81000000008310611416576d04ee2d6d415b85acef8100000000830492506020015b662386f26fc10000831061143457662386f26fc10000830492506010015b6305f5e100831061144c576305f5e100830492506008015b612710831061146057612710830492506004015b60648310611472576064830492506002015b600a83106104745760010192915050565b6001600160a01b0382166114ac57604051633250574960e11b81525f6004820152602401610592565b5f6114b883835f610e58565b90506001600160a01b038116156107ea576040516339e3563760e11b81525f6004820152602401610592565b5f6001600160a01b038316158015906115405750826001600160a01b0316846001600160a01b0316148061151d575061151d8484610d41565b8061154057505f828152600460205260409020546001600160a01b038481169116145b949350505050565b6001600160e01b031981168114610da8575f80fd5b5f6020828403121561156d575f80fd5b813561157881611548565b9392505050565b5f5b83811015611599578181015183820152602001611581565b50505f910152565b5f81518084526115b881602086016020860161157f565b601f01601f19169290920160200192915050565b602081525f61157860208301846115a1565b5f602082840312156115ee575f80fd5b5035919050565b80356001600160a01b0381168114610684575f80fd5b5f806040838503121561161c575f80fd5b611625836115f5565b946020939093013593505050565b5f60208284031215611643575f80fd5b611578826115f5565b5f805f6060848603121561165e575f80fd5b611667846115f5565b9250611675602085016115f5565b9150604084013590509250925092565b5f8060408385031215611696575f80fd5b50508035926020909101359150565b80358015158114610684575f80fd5b5f602082840312156116c4575f80fd5b611578826116a5565b634e487b7160e01b5f52604160045260245ffd5b5f67ffffffffffffffff808411156116fb576116fb6116cd565b604051601f8501601f19908116603f01168101908282118183101715611723576117236116cd565b8160405280935085815286868601111561173b575f80fd5b858560208301375f602087830101525050509392505050565b5f60208284031215611764575f80fd5b813567ffffffffffffffff81111561177a575f80fd5b8201601f8101841361178a575f80fd5b611540848235602084016116e1565b602080825282518282018190525f9190848201906040850190845b818110156117d0578351835292840192918401916001016117b4565b50909695505050505050565b5f80604083850312156117ed575f80fd5b6117f6836115f5565b9150611804602084016116a5565b90509250929050565b5f805f8060808587031215611820575f80fd5b611829856115f5565b9350611837602086016115f5565b925060408501359150606085013567ffffffffffffffff811115611859575f80fd5b8501601f81018713611869575f80fd5b611878878235602084016116e1565b91505092959194509250565b5f8060408385031215611895575f80fd5b61189e836115f5565b9150611804602084016115f5565b600181811c908216806118c057607f821691505b6020821081036118de57634e487b7160e01b5f52602260045260245ffd5b50919050565b634e487b7160e01b5f52601160045260245ffd5b5f60018201611909576119096118e4565b5060010190565b8082028115828204841417610474576104746118e4565b5f8261194157634e487b7160e01b5f52601260045260245ffd5b500490565b601f8211156107ea575f81815260208120601f850160051c8101602086101561196c5750805b601f850160051c820191505b8181101561118557828155600101611978565b815167ffffffffffffffff8111156119a5576119a56116cd565b6119b9816119b384546118ac565b84611946565b602080601f8311600181146119ec575f84156119d55750858301515b5f19600386901b1c1916600185901b178555611185565b5f85815260208120601f198616915b82811015611a1a578886015182559484019460019091019084016119fb565b5085821015611a3757878501515f19600388901b60f8161c191681555b5050505050600190811b01905550565b5f8351611a5881846020880161157f565b835190830190611a6c81836020880161157f565b64173539b7b760d91b9101908152600501949350505050565b6001600160a01b03858116825284166020820152604081018390526080606082018190525f90611ab7908301846115a1565b9695505050505050565b5f60208284031215611ad1575f80fd5b81516115788161154856fea2646970667358221220b49a4c85030fd907d57b982d14dbed7c030f17dfc0e0faea7a42a7734f4679a664736f6c63430008140033","linkReferences":{}},"methodIdentifiers":{"approve(address,uint256)":"095ea7b3","balanceOf(address)":"70a08231","getApproved(uint256)":"081812fc","getGraveHeights(uint256)":"7a86eff6","isApprovedForAll(address,address)":"e985e9c5","maxSupply()":"d5abeb01","mintGrave()":"939b436b","mintGraveFor(address)":"152f4033","mintingEnabled()":"9fd6db12","name()":"06fdde03","owner()":"8da5cb5b","ownerOf(uint256)":"6352211e","recordHeight(uint256,uint256)":"d6dbbb34","renounceOwnership()":"715018a6","royaltyInfo(uint256,uint256)":"2a55205a","royaltyPercentage()":"8a71bb2d","royaltyReceiver()":"9fbc8713","safeTransferFrom(address,address,uint256)":"42842e0e","safeTransferFrom(address,address,uint256,bytes)":"b88d4fde","setApprovalForAll(address,bool)":"a22cb465","setBaseURI(string)":"55f804b3","setMaxSupply(uint256)":"6f8b44b0","setMinter(address,bool)":"cf456ae7","setMintingEnabled(bool)":"4ea3871a","setRoyaltyInfo(address,uint256)":"e2e784d5","supportsInterface(bytes4)":"01ffc9a7","symbol()":"95d89b41","tokenURI(uint256)":"c87b56dd","transferFrom(address,address,uint256)":"23b872dd","transferOwnership(address)":"f2fde38b","withdraw()":"3ccfd60b"},"id":0}