{
  "_format": "hh-sol-artifact-1",
  "contractName": "GraveNFT",
  "sourceName": "contracts/GraveNFT.sol",
  "abi": [
    {
      "inputs": [],
      "stateMutability": "nonpayable",
      "type": "constructor"
    },
    {
      "anonymous": false,
      "inputs": [
        {
          "indexed": true,
          "internalType": "address",
          "name": "owner",
          "type": "address"
        },
        {
          "indexed": true,
          "internalType": "address",
          "name": "approved",
          "type": "address"
        },
        {
          "indexed": true,
          "internalType": "uint256",
          "name": "tokenId",
          "type": "uint256"
        }
      ],
      "name": "Approval",
      "type": "event"
    },
    {
      "anonymous": false,
      "inputs": [
        {
          "indexed": true,
          "internalType": "address",
          "name": "owner",
          "type": "address"
        },
        {
          "indexed": true,
          "internalType": "address",
          "name": "operator",
          "type": "address"
        },
        {
          "indexed": false,
          "internalType": "bool",
          "name": "approved",
          "type": "bool"
        }
      ],
      "name": "ApprovalForAll",
      "type": "event"
    },
    {
      "anonymous": false,
      "inputs": [
        {
          "indexed": true,
          "internalType": "uint256",
          "name": "tokenId",
          "type": "uint256"
        }
      ],
      "name": "GraveCleaned",
      "type": "event"
    },
    {
      "anonymous": false,
      "inputs": [
        {
          "indexed": true,
          "internalType": "uint256",
          "name": "tokenId",
          "type": "uint256"
        },
        {
          "indexed": true,
          "internalType": "address",
          "name": "owner",
          "type": "address"
        },
        {
          "indexed": false,
          "internalType": "string",
          "name": "name",
          "type": "string"
        }
      ],
      "name": "GraveCreated",
      "type": "event"
    },
    {
      "anonymous": false,
      "inputs": [
        {
          "indexed": true,
          "internalType": "uint256",
          "name": "tokenId",
          "type": "uint256"
        }
      ],
      "name": "GraveFed",
      "type": "event"
    },
    {
      "anonymous": false,
      "inputs": [
        {
          "indexed": true,
          "internalType": "uint256",
          "name": "tokenId",
          "type": "uint256"
        }
      ],
      "name": "GravePlayed",
      "type": "event"
    },
    {
      "anonymous": false,
      "inputs": [
        {
          "indexed": true,
          "internalType": "address",
          "name": "previousOwner",
          "type": "address"
        },
        {
          "indexed": true,
          "internalType": "address",
          "name": "newOwner",
          "type": "address"
        }
      ],
      "name": "OwnershipTransferred",
      "type": "event"
    },
    {
      "anonymous": false,
      "inputs": [
        {
          "indexed": true,
          "internalType": "address",
          "name": "from",
          "type": "address"
        },
        {
          "indexed": true,
          "internalType": "address",
          "name": "to",
          "type": "address"
        },
        {
          "indexed": true,
          "internalType": "uint256",
          "name": "tokenId",
          "type": "uint256"
        }
      ],
      "name": "Transfer",
      "type": "event"
    },
    {
      "inputs": [
        {
          "internalType": "address",
          "name": "to",
          "type": "address"
        },
        {
          "internalType": "uint256",
          "name": "tokenId",
          "type": "uint256"
        }
      ],
      "name": "approve",
      "outputs": [],
      "stateMutability": "nonpayable",
      "type": "function"
    },
    {
      "inputs": [
        {
          "internalType": "address",
          "name": "owner",
          "type": "address"
        }
      ],
      "name": "balanceOf",
      "outputs": [
        {
          "internalType": "uint256",
          "name": "",
          "type": "uint256"
        }
      ],
      "stateMutability": "view",
      "type": "function"
    },
    {
      "inputs": [
        {
          "internalType": "uint256",
          "name": "tokenId",
          "type": "uint256"
        }
      ],
      "name": "getApproved",
      "outputs": [
        {
          "internalType": "address",
          "name": "",
          "type": "address"
        }
      ],
      "stateMutability": "view",
      "type": "function"
    },
    {
      "inputs": [
        {
          "internalType": "uint256",
          "name": "tokenId",
          "type": "uint256"
        }
      ],
      "name": "getGraveStatus",
      "outputs": [
        {
          "components": [
            {
              "internalType": "string",
              "name": "name",
              "type": "string"
            },
            {
              "internalType": "uint8",
              "name": "energy",
              "type": "uint8"
            },
            {
              "internalType": "uint8",
              "name": "cleanliness",
              "type": "uint8"
            },
            {
              "internalType": "uint8",
              "name": "mood",
              "type": "uint8"
            },
            {
              "components": [
                {
                  "internalType": "enum IGraveNFT.Personality",
                  "name": "personality",
                  "type": "uint8"
                },
                {
                  "internalType": "string",
                  "name": "color",
                  "type": "string"
                },
                {
                  "internalType": "string",
                  "name": "origin",
                  "type": "string"
                },
                {
                  "internalType": "enum IGraveNFT.GraveType",
                  "name": "graveType",
                  "type": "uint8"
                }
              ],
              "internalType": "struct IGraveNFT.Traits",
              "name": "traits",
              "type": "tuple"
            }
          ],
          "internalType": "struct IGraveNFT.GraveStatus",
          "name": "",
          "type": "tuple"
        }
      ],
      "stateMutability": "view",
      "type": "function"
    },
    {
      "inputs": [
        {
          "internalType": "uint256",
          "name": "tokenId",
          "type": "uint256"
        }
      ],
      "name": "getTraits",
      "outputs": [
        {
          "components": [
            {
              "internalType": "enum IGraveNFT.Personality",
              "name": "personality",
              "type": "uint8"
            },
            {
              "internalType": "string",
              "name": "color",
              "type": "string"
            },
            {
              "internalType": "string",
              "name": "origin",
              "type": "string"
            },
            {
              "internalType": "enum IGraveNFT.GraveType",
              "name": "graveType",
              "type": "uint8"
            }
          ],
          "internalType": "struct IGraveNFT.Traits",
          "name": "",
          "type": "tuple"
        }
      ],
      "stateMutability": "view",
      "type": "function"
    },
    {
      "inputs": [
        {
          "internalType": "address",
          "name": "owner",
          "type": "address"
        },
        {
          "internalType": "address",
          "name": "operator",
          "type": "address"
        }
      ],
      "name": "isApprovedForAll",
      "outputs": [
        {
          "internalType": "bool",
          "name": "",
          "type": "bool"
        }
      ],
      "stateMutability": "view",
      "type": "function"
    },
    {
      "inputs": [
        {
          "internalType": "string",
          "name": "name",
          "type": "string"
        },
        {
          "components": [
            {
              "internalType": "enum IGraveNFT.Personality",
              "name": "personality",
              "type": "uint8"
            },
            {
              "internalType": "string",
              "name": "color",
              "type": "string"
            },
            {
              "internalType": "string",
              "name": "origin",
              "type": "string"
            },
            {
              "internalType": "enum IGraveNFT.GraveType",
              "name": "graveType",
              "type": "uint8"
            }
          ],
          "internalType": "struct IGraveNFT.Traits",
          "name": "traits",
          "type": "tuple"
        }
      ],
      "name": "mintGrave",
      "outputs": [
        {
          "internalType": "uint256",
          "name": "",
          "type": "uint256"
        }
      ],
      "stateMutability": "nonpayable",
      "type": "function"
    },
    {
      "inputs": [],
      "name": "name",
      "outputs": [
        {
          "internalType": "string",
          "name": "",
          "type": "string"
        }
      ],
      "stateMutability": "view",
      "type": "function"
    },
    {
      "inputs": [],
      "name": "owner",
      "outputs": [
        {
          "internalType": "address",
          "name": "",
          "type": "address"
        }
      ],
      "stateMutability": "view",
      "type": "function"
    },
    {
      "inputs": [
        {
          "internalType": "uint256",
          "name": "tokenId",
          "type": "uint256"
        }
      ],
      "name": "ownerOf",
      "outputs": [
        {
          "internalType": "address",
          "name": "",
          "type": "address"
        }
      ],
      "stateMutability": "view",
      "type": "function"
    },
    {
      "inputs": [],
      "name": "renounceOwnership",
      "outputs": [],
      "stateMutability": "nonpayable",
      "type": "function"
    },
    {
      "inputs": [
        {
          "internalType": "address",
          "name": "from",
          "type": "address"
        },
        {
          "internalType": "address",
          "name": "to",
          "type": "address"
        },
        {
          "internalType": "uint256",
          "name": "tokenId",
          "type": "uint256"
        }
      ],
      "name": "safeTransferFrom",
      "outputs": [],
      "stateMutability": "nonpayable",
      "type": "function"
    },
    {
      "inputs": [
        {
          "internalType": "address",
          "name": "from",
          "type": "address"
        },
        {
          "internalType": "address",
          "name": "to",
          "type": "address"
        },
        {
          "internalType": "uint256",
          "name": "tokenId",
          "type": "uint256"
        },
        {
          "internalType": "bytes",
          "name": "data",
          "type": "bytes"
        }
      ],
      "name": "safeTransferFrom",
      "outputs": [],
      "stateMutability": "nonpayable",
      "type": "function"
    },
    {
      "inputs": [
        {
          "internalType": "address",
          "name": "operator",
          "type": "address"
        },
        {
          "internalType": "bool",
          "name": "approved",
          "type": "bool"
        }
      ],
      "name": "setApprovalForAll",
      "outputs": [],
      "stateMutability": "nonpayable",
      "type": "function"
    },
    {
      "inputs": [
        {
          "internalType": "string",
          "name": "baseURI",
          "type": "string"
        }
      ],
      "name": "setBaseURI",
      "outputs": [],
      "stateMutability": "nonpayable",
      "type": "function"
    },
    {
      "inputs": [
        {
          "internalType": "bytes4",
          "name": "interfaceId",
          "type": "bytes4"
        }
      ],
      "name": "supportsInterface",
      "outputs": [
        {
          "internalType": "bool",
          "name": "",
          "type": "bool"
        }
      ],
      "stateMutability": "view",
      "type": "function"
    },
    {
      "inputs": [],
      "name": "symbol",
      "outputs": [
        {
          "internalType": "string",
          "name": "",
          "type": "string"
        }
      ],
      "stateMutability": "view",
      "type": "function"
    },
    {
      "inputs": [
        {
          "internalType": "uint256",
          "name": "tokenId",
          "type": "uint256"
        }
      ],
      "name": "tokenURI",
      "outputs": [
        {
          "internalType": "string",
          "name": "",
          "type": "string"
        }
      ],
      "stateMutability": "view",
      "type": "function"
    },
    {
      "inputs": [
        {
          "internalType": "address",
          "name": "from",
          "type": "address"
        },
        {
          "internalType": "address",
          "name": "to",
          "type": "address"
        },
        {
          "internalType": "uint256",
          "name": "tokenId",
          "type": "uint256"
        }
      ],
      "name": "transferFrom",
      "outputs": [],
      "stateMutability": "nonpayable",
      "type": "function"
    },
    {
      "inputs": [
        {
          "internalType": "address",
          "name": "newOwner",
          "type": "address"
        }
      ],
      "name": "transferOwnership",
      "outputs": [],
      "stateMutability": "nonpayable",
      "type": "function"
    },
    {
      "inputs": [
        {
          "internalType": "uint256",
          "name": "tokenId",
          "type": "uint256"
        },
        {
          "internalType": "uint8",
          "name": "energy",
          "type": "uint8"
        },
        {
          "internalType": "uint8",
          "name": "cleanliness",
          "type": "uint8"
        },
        {
          "internalType": "uint8",
          "name": "mood",
          "type": "uint8"
        }
      ],
      "name": "updateStatus",
      "outputs": [],
      "stateMutability": "nonpayable",
      "type": "function"
    }
  ],
  "bytecode": "0x60806040523480156200001157600080fd5b506040518060400160405280600881526020017f48616b61746368690000000000000000000000000000000000000000000000008152506040518060400160405280600481526020017f48414b410000000000000000000000000000000000000000000000000000000081525081600090816200008f919062000412565b508060019081620000a1919062000412565b505050620000c4620000b8620000ca60201b60201c565b620000d260201b60201c565b620004f9565b600033905090565b6000600660009054906101000a900473ffffffffffffffffffffffffffffffffffffffff16905081600660006101000a81548173ffffffffffffffffffffffffffffffffffffffff021916908373ffffffffffffffffffffffffffffffffffffffff1602179055508173ffffffffffffffffffffffffffffffffffffffff168173ffffffffffffffffffffffffffffffffffffffff167f8be0079c531659141344cd1fd0a4f28419497f9722a3daafe3b4186f6b6457e060405160405180910390a35050565b600081519050919050565b7f4e487b7100000000000000000000000000000000000000000000000000000000600052604160045260246000fd5b7f4e487b7100000000000000000000000000000000000000000000000000000000600052602260045260246000fd5b600060028204905060018216806200021a57607f821691505b60208210810362000230576200022f620001d2565b5b50919050565b60008190508160005260206000209050919050565b60006020601f8301049050919050565b600082821b905092915050565b6000600883026200029a7fffffffffffffffffffffffffffffffffffffffffffffffffffffffffffffffff826200025b565b620002a686836200025b565b95508019841693508086168417925050509392505050565b6000819050919050565b6000819050919050565b6000620002f3620002ed620002e784620002be565b620002c8565b620002be565b9050919050565b6000819050919050565b6200030f83620002d2565b620003276200031e82620002fa565b84845462000268565b825550505050565b600090565b6200033e6200032f565b6200034b81848462000304565b505050565b5b8181101562000373576200036760008262000334565b60018101905062000351565b5050565b601f821115620003c2576200038c8162000236565b62000397846200024b565b81016020851015620003a7578190505b620003bf620003b6856200024b565b83018262000350565b50505b505050565b600082821c905092915050565b6000620003e760001984600802620003c7565b1980831691505092915050565b6000620004028383620003d4565b9150826002028217905092915050565b6200041d8262000198565b67ffffffffffffffff811115620004395762000438620001a3565b5b62000445825462000201565b6200045282828562000377565b600060209050601f8311600181146200048a576000841562000475578287015190505b620004818582620003f4565b865550620004f1565b601f1984166200049a8662000236565b60005b82811015620004c4578489015182556001820191506020850194506020810190506200049d565b86831015620004e45784890151620004e0601f891682620003d4565b8355505b6001600288020188555050505b505050505050565b613b7380620005096000396000f3fe608060405234801561001057600080fd5b50600436106101375760003560e01c806370a08231116100b8578063b88d4fde1161007c578063b88d4fde14610338578063c87b56dd14610354578063d5dadff114610384578063e1dc0761146103b4578063e985e9c5146103e4578063f2fde38b1461041457610137565b806370a08231146102a6578063715018a6146102d65780638da5cb5b146102e057806395d89b41146102fe578063a22cb4651461031c57610137565b806323b872dd116100ff57806323b872dd1461020657806342842e0e1461022257806355f804b31461023e5780636352211e1461025a578063702233b31461028a57610137565b806301ffc9a71461013c57806306fdde031461016c578063081812fc1461018a578063095ea7b3146101ba5780631265dbd3146101d6575b600080fd5b61015660048036038101906101519190612442565b610430565b604051610163919061248a565b60405180910390f35b610174610512565b6040516101819190612535565b60405180910390f35b6101a4600480360381019061019f919061258d565b6105a4565b6040516101b191906125fb565b60405180910390f35b6101d460048036038101906101cf9190612642565b6105ea565b005b6101f060048036038101906101eb919061258d565b610701565b6040516101fd919061288e565b60405180910390f35b610220600480360381019061021b91906128b0565b610a0d565b005b61023c600480360381019061023791906128b0565b610a6d565b005b61025860048036038101906102539190612a38565b610a8d565b005b610274600480360381019061026f919061258d565b610aa8565b60405161028191906125fb565b60405180910390f35b6102a4600480360381019061029f9190612aad565b610b2e565b005b6102c060048036038101906102bb9190612b14565b610bf3565b6040516102cd9190612b50565b60405180910390f35b6102de610caa565b005b6102e8610cbe565b6040516102f591906125fb565b60405180910390f35b610306610ce8565b6040516103139190612535565b60405180910390f35b61033660048036038101906103319190612b97565b610d7a565b005b610352600480360381019061034d9190612c78565b610d90565b005b61036e6004803603810190610369919061258d565b610df2565b60405161037b9190612535565b60405180910390f35b61039e60048036038101906103999190612dff565b610e9c565b6040516103ab9190612b50565b60405180910390f35b6103ce60048036038101906103c9919061258d565b611072565b6040516103db9190612ee1565b60405180910390f35b6103fe60048036038101906103f99190612f03565b611284565b60405161040b919061248a565b60405180910390f35b61042e60048036038101906104299190612b14565b611318565b005b60007f80ac58cd000000000000000000000000000000000000000000000000000000007bffffffffffffffffffffffffffffffffffffffffffffffffffffffff1916827bffffffffffffffffffffffffffffffffffffffffffffffffffffffff191614806104fb57507f5b5e139f000000000000000000000000000000000000000000000000000000007bffffffffffffffffffffffffffffffffffffffffffffffffffffffff1916827bffffffffffffffffffffffffffffffffffffffffffffffffffffffff1916145b8061050b575061050a8261139b565b5b9050919050565b60606000805461052190612f72565b80601f016020809104026020016040519081016040528092919081815260200182805461054d90612f72565b801561059a5780601f1061056f5761010080835404028352916020019161059a565b820191906000526020600020905b81548152906001019060200180831161057d57829003601f168201915b5050505050905090565b60006105af82611405565b6004600083815260200190815260200160002060009054906101000a900473ffffffffffffffffffffffffffffffffffffffff169050919050565b60006105f582610aa8565b90508073ffffffffffffffffffffffffffffffffffffffff168373ffffffffffffffffffffffffffffffffffffffff1603610665576040517f08c379a000000000000000000000000000000000000000000000000000000000815260040161065c90613015565b60405180910390fd5b8073ffffffffffffffffffffffffffffffffffffffff16610684611450565b73ffffffffffffffffffffffffffffffffffffffff1614806106b357506106b2816106ad611450565b611284565b5b6106f2576040517f08c379a00000000000000000000000000000000000000000000000000000000081526004016106e9906130a7565b60405180910390fd5b6106fc8383611458565b505050565b61070961234c565b61071282611511565b610751576040517f08c379a000000000000000000000000000000000000000000000000000000000815260040161074890613113565b60405180910390fd5b600860008381526020019081526020016000206040518060a001604052908160008201805461077f90612f72565b80601f01602080910402602001604051908101604052809291908181526020018280546107ab90612f72565b80156107f85780601f106107cd576101008083540402835291602001916107f8565b820191906000526020600020905b8154815290600101906020018083116107db57829003601f168201915b505050505081526020016001820160009054906101000a900460ff1660ff1660ff1681526020016001820160019054906101000a900460ff1660ff1660ff1681526020016001820160029054906101000a900460ff1660ff1660ff168152602001600282016040518060800160405290816000820160009054906101000a900460ff16600481111561088d5761088c6126e8565b5b600481111561089f5761089e6126e8565b5b81526020016001820180546108b390612f72565b80601f01602080910402602001604051908101604052809291908181526020018280546108df90612f72565b801561092c5780601f106109015761010080835404028352916020019161092c565b820191906000526020600020905b81548152906001019060200180831161090f57829003601f168201915b5050505050815260200160028201805461094590612f72565b80601f016020809104026020016040519081016040528092919081815260200182805461097190612f72565b80156109be5780601f10610993576101008083540402835291602001916109be565b820191906000526020600020905b8154815290600101906020018083116109a157829003601f168201915b505050505081526020016003820160009054906101000a900460ff1660038111156109ec576109eb6126e8565b5b60038111156109fe576109fd6126e8565b5b81525050815250509050919050565b610a1e610a18611450565b82611552565b610a5d576040517f08c379a0000000000000000000000000000000000000000000000000000000008152600401610a54906131a5565b60405180910390fd5b610a688383836115e7565b505050565b610a8883838360405180602001604052806000815250610d90565b505050565b610a956118e0565b8060099081610aa49190613371565b5050565b600080610ab48361195e565b9050600073ffffffffffffffffffffffffffffffffffffffff168173ffffffffffffffffffffffffffffffffffffffff1603610b25576040517f08c379a0000000000000000000000000000000000000000000000000000000008152600401610b1c9061348f565b60405180910390fd5b80915050919050565b610b366118e0565b610b3f84611511565b610b7e576040517f08c379a0000000000000000000000000000000000000000000000000000000008152600401610b7590613113565b60405180910390fd5b6000600860008681526020019081526020016000209050838160010160006101000a81548160ff021916908360ff160217905550828160010160016101000a81548160ff021916908360ff160217905550818160010160026101000a81548160ff021916908360ff1602179055505050505050565b60008073ffffffffffffffffffffffffffffffffffffffff168273ffffffffffffffffffffffffffffffffffffffff1603610c63576040517f08c379a0000000000000000000000000000000000000000000000000000000008152600401610c5a90613521565b60405180910390fd5b600360008373ffffffffffffffffffffffffffffffffffffffff1673ffffffffffffffffffffffffffffffffffffffff168152602001908152602001600020549050919050565b610cb26118e0565b610cbc600061199b565b565b6000600660009054906101000a900473ffffffffffffffffffffffffffffffffffffffff16905090565b606060018054610cf790612f72565b80601f0160208091040260200160405190810160405280929190818152602001828054610d2390612f72565b8015610d705780601f10610d4557610100808354040283529160200191610d70565b820191906000526020600020905b815481529060010190602001808311610d5357829003601f168201915b5050505050905090565b610d8c610d85611450565b8383611a61565b5050565b610da1610d9b611450565b83611552565b610de0576040517f08c379a0000000000000000000000000000000000000000000000000000000008152600401610dd7906131a5565b60405180910390fd5b610dec84848484611bcd565b50505050565b6060610dfd82611511565b610e3c576040517f08c379a0000000000000000000000000000000000000000000000000000000008152600401610e33906135b3565b60405180910390fd5b6000610e46611c29565b90506000815103610e695760405180602001604052806000815250915050610e97565b80610e7384611cbb565b604051602001610e8492919061360f565b6040516020818303038152906040529150505b919050565b6000610ea86007611d89565b6000610eb46007611d9f565b9050610ec03382611dad565b6040518060a00160405280858152602001603260ff168152602001603260ff168152602001603260ff16815260200184815250600860008381526020019081526020016000206000820151816000019081610f1b9190613371565b5060208201518160010160006101000a81548160ff021916908360ff16021790555060408201518160010160016101000a81548160ff021916908360ff16021790555060608201518160010160026101000a81548160ff021916908360ff16021790555060808201518160020160008201518160000160006101000a81548160ff02191690836004811115610fb357610fb26126e8565b5b02179055506020820151816001019081610fcd9190613371565b506040820151816002019081610fe39190613371565b5060608201518160030160006101000a81548160ff0219169083600381111561100f5761100e6126e8565b5b021790555050509050503373ffffffffffffffffffffffffffffffffffffffff16817f12ab962c3ae1c36a582cea01dfee9193ef43b9413eeec86a192aadabe34d07e8866040516110609190612535565b60405180910390a38091505092915050565b61107a61238a565b61108382611511565b6110c2576040517f08c379a00000000000000000000000000000000000000000000000000000000081526004016110b990613113565b60405180910390fd5b600860008381526020019081526020016000206002016040518060800160405290816000820160009054906101000a900460ff166004811115611108576111076126e8565b5b600481111561111a576111196126e8565b5b815260200160018201805461112e90612f72565b80601f016020809104026020016040519081016040528092919081815260200182805461115a90612f72565b80156111a75780601f1061117c576101008083540402835291602001916111a7565b820191906000526020600020905b81548152906001019060200180831161118a57829003601f168201915b505050505081526020016002820180546111c090612f72565b80601f01602080910402602001604051908101604052809291908181526020018280546111ec90612f72565b80156112395780601f1061120e57610100808354040283529160200191611239565b820191906000526020600020905b81548152906001019060200180831161121c57829003601f168201915b505050505081526020016003820160009054906101000a900460ff166003811115611267576112666126e8565b5b6003811115611279576112786126e8565b5b815250509050919050565b6000600560008473ffffffffffffffffffffffffffffffffffffffff1673ffffffffffffffffffffffffffffffffffffffff16815260200190815260200160002060008373ffffffffffffffffffffffffffffffffffffffff1673ffffffffffffffffffffffffffffffffffffffff16815260200190815260200160002060009054906101000a900460ff16905092915050565b6113206118e0565b600073ffffffffffffffffffffffffffffffffffffffff168173ffffffffffffffffffffffffffffffffffffffff160361138f576040517f08c379a0000000000000000000000000000000000000000000000000000000008152600401611386906136a5565b60405180910390fd5b6113988161199b565b50565b60007f01ffc9a7000000000000000000000000000000000000000000000000000000007bffffffffffffffffffffffffffffffffffffffffffffffffffffffff1916827bffffffffffffffffffffffffffffffffffffffffffffffffffffffff1916149050919050565b61140e81611511565b61144d576040517f08c379a00000000000000000000000000000000000000000000000000000000081526004016114449061348f565b60405180910390fd5b50565b600033905090565b816004600083815260200190815260200160002060006101000a81548173ffffffffffffffffffffffffffffffffffffffff021916908373ffffffffffffffffffffffffffffffffffffffff160217905550808273ffffffffffffffffffffffffffffffffffffffff166114cb83610aa8565b73ffffffffffffffffffffffffffffffffffffffff167f8c5be1e5ebec7d5bd14f71427d1e84f3dd0314c0f7b2291e5b200ac8c7c3b92560405160405180910390a45050565b60008073ffffffffffffffffffffffffffffffffffffffff166115338361195e565b73ffffffffffffffffffffffffffffffffffffffff1614159050919050565b60008061155e83610aa8565b90508073ffffffffffffffffffffffffffffffffffffffff168473ffffffffffffffffffffffffffffffffffffffff1614806115a0575061159f8185611284565b5b806115de57508373ffffffffffffffffffffffffffffffffffffffff166115c6846105a4565b73ffffffffffffffffffffffffffffffffffffffff16145b91505092915050565b8273ffffffffffffffffffffffffffffffffffffffff1661160782610aa8565b73ffffffffffffffffffffffffffffffffffffffff161461165d576040517f08c379a000000000000000000000000000000000000000000000000000000000815260040161165490613737565b60405180910390fd5b600073ffffffffffffffffffffffffffffffffffffffff168273ffffffffffffffffffffffffffffffffffffffff16036116cc576040517f08c379a00000000000000000000000000000000000000000000000000000000081526004016116c3906137c9565b60405180910390fd5b6116d98383836001611dcb565b8273ffffffffffffffffffffffffffffffffffffffff166116f982610aa8565b73ffffffffffffffffffffffffffffffffffffffff161461174f576040517f08c379a000000000000000000000000000000000000000000000000000000000815260040161174690613737565b60405180910390fd5b6004600082815260200190815260200160002060006101000a81549073ffffffffffffffffffffffffffffffffffffffff02191690556001600360008573ffffffffffffffffffffffffffffffffffffffff1673ffffffffffffffffffffffffffffffffffffffff168152602001908152602001600020600082825403925050819055506001600360008473ffffffffffffffffffffffffffffffffffffffff1673ffffffffffffffffffffffffffffffffffffffff16815260200190815260200160002060008282540192505081905550816002600083815260200190815260200160002060006101000a81548173ffffffffffffffffffffffffffffffffffffffff021916908373ffffffffffffffffffffffffffffffffffffffff160217905550808273ffffffffffffffffffffffffffffffffffffffff168473ffffffffffffffffffffffffffffffffffffffff167fddf252ad1be2c89b69c2b068fc378daa952ba7f163c4a11628f55a4df523b3ef60405160405180910390a46118db8383836001611dd1565b505050565b6118e8611450565b73ffffffffffffffffffffffffffffffffffffffff16611906610cbe565b73ffffffffffffffffffffffffffffffffffffffff161461195c576040517f08c379a000000000000000000000000000000000000000000000000000000000815260040161195390613835565b60405180910390fd5b565b60006002600083815260200190815260200160002060009054906101000a900473ffffffffffffffffffffffffffffffffffffffff169050919050565b6000600660009054906101000a900473ffffffffffffffffffffffffffffffffffffffff16905081600660006101000a81548173ffffffffffffffffffffffffffffffffffffffff021916908373ffffffffffffffffffffffffffffffffffffffff1602179055508173ffffffffffffffffffffffffffffffffffffffff168173ffffffffffffffffffffffffffffffffffffffff167f8be0079c531659141344cd1fd0a4f28419497f9722a3daafe3b4186f6b6457e060405160405180910390a35050565b8173ffffffffffffffffffffffffffffffffffffffff168373ffffffffffffffffffffffffffffffffffffffff1603611acf576040517f08c379a0000000000000000000000000000000000000000000000000000000008152600401611ac6906138a1565b60405180910390fd5b80600560008573ffffffffffffffffffffffffffffffffffffffff1673ffffffffffffffffffffffffffffffffffffffff16815260200190815260200160002060008473ffffffffffffffffffffffffffffffffffffffff1673ffffffffffffffffffffffffffffffffffffffff16815260200190815260200160002060006101000a81548160ff0219169083151502179055508173ffffffffffffffffffffffffffffffffffffffff168373ffffffffffffffffffffffffffffffffffffffff167f17307eab39ab6107e8899845ad3d59bd9653f200f220920489ca2b5937696c3183604051611bc0919061248a565b60405180910390a3505050565b611bd88484846115e7565b611be484848484611dd7565b611c23576040517f08c379a0000000000000000000000000000000000000000000000000000000008152600401611c1a90613933565b60405180910390fd5b50505050565b606060098054611c3890612f72565b80601f0160208091040260200160405190810160405280929190818152602001828054611c6490612f72565b8015611cb15780601f10611c8657610100808354040283529160200191611cb1565b820191906000526020600020905b815481529060010190602001808311611c9457829003601f168201915b5050505050905090565b606060006001611cca84611f5e565b01905060008167ffffffffffffffff811115611ce957611ce861290d565b5b6040519080825280601f01601f191660200182016040528015611d1b5781602001600182028036833780820191505090505b509050600082602001820190505b600115611d7e578080600190039150507f3031323334353637383961626364656600000000000000000000000000000000600a86061a8153600a8581611d7257611d71613953565b5b04945060008503611d29575b819350505050919050565b6001816000016000828254019250508190555050565b600081600001549050919050565b611dc78282604051806020016040528060008152506120b1565b5050565b50505050565b50505050565b6000611df88473ffffffffffffffffffffffffffffffffffffffff1661210c565b15611f51578373ffffffffffffffffffffffffffffffffffffffff1663150b7a02611e21611450565b8786866040518563ffffffff1660e01b8152600401611e4394939291906139d7565b6020604051808303816000875af1925050508015611e7f57506040513d601f19601f82011682018060405250810190611e7c9190613a38565b60015b611f01573d8060008114611eaf576040519150601f19603f3d011682016040523d82523d6000602084013e611eb4565b606091505b506000815103611ef9576040517f08c379a0000000000000000000000000000000000000000000000000000000008152600401611ef090613933565b60405180910390fd5b805181602001fd5b63150b7a0260e01b7bffffffffffffffffffffffffffffffffffffffffffffffffffffffff1916817bffffffffffffffffffffffffffffffffffffffffffffffffffffffff191614915050611f56565b600190505b949350505050565b600080600090507a184f03e93ff9f4daa797ed6e38ed64bf6a1f0100000000000000008310611fbc577a184f03e93ff9f4daa797ed6e38ed64bf6a1f0100000000000000008381611fb257611fb1613953565b5b0492506040810190505b6d04ee2d6d415b85acef81000000008310611ff9576d04ee2d6d415b85acef81000000008381611fef57611fee613953565b5b0492506020810190505b662386f26fc10000831061202857662386f26fc10000838161201e5761201d613953565b5b0492506010810190505b6305f5e1008310612051576305f5e100838161204757612046613953565b5b0492506008810190505b612710831061207657612710838161206c5761206b613953565b5b0492506004810190505b60648310612099576064838161208f5761208e613953565b5b0492506002810190505b600a83106120a8576001810190505b80915050919050565b6120bb838361212f565b6120c86000848484611dd7565b612107576040517f08c379a00000000000000000000000000000000000000000000000000000000081526004016120fe90613933565b60405180910390fd5b505050565b6000808273ffffffffffffffffffffffffffffffffffffffff163b119050919050565b600073ffffffffffffffffffffffffffffffffffffffff168273ffffffffffffffffffffffffffffffffffffffff160361219e576040517f08c379a000000000000000000000000000000000000000000000000000000000815260040161219590613ab1565b60405180910390fd5b6121a781611511565b156121e7576040517f08c379a00000000000000000000000000000000000000000000000000000000081526004016121de90613b1d565b60405180910390fd5b6121f5600083836001611dcb565b6121fe81611511565b1561223e576040517f08c379a000000000000000000000000000000000000000000000000000000000815260040161223590613b1d565b60405180910390fd5b6001600360008473ffffffffffffffffffffffffffffffffffffffff1673ffffffffffffffffffffffffffffffffffffffff16815260200190815260200160002060008282540192505081905550816002600083815260200190815260200160002060006101000a81548173ffffffffffffffffffffffffffffffffffffffff021916908373ffffffffffffffffffffffffffffffffffffffff160217905550808273ffffffffffffffffffffffffffffffffffffffff16600073ffffffffffffffffffffffffffffffffffffffff167fddf252ad1be2c89b69c2b068fc378daa952ba7f163c4a11628f55a4df523b3ef60405160405180910390a4612348600083836001611dd1565b5050565b6040518060a0016040528060608152602001600060ff168152602001600060ff168152602001600060ff16815260200161238461238a565b81525090565b6040518060800160405280600060048111156123a9576123a86126e8565b5b81526020016060815260200160608152602001600060038111156123d0576123cf6126e8565b5b81525090565b6000604051905090565b600080fd5b600080fd5b60007fffffffff0000000000000000000000000000000000000000000000000000000082169050919050565b61241f816123ea565b811461242a57600080fd5b50565b60008135905061243c81612416565b92915050565b600060208284031215612458576124576123e0565b5b60006124668482850161242d565b91505092915050565b60008115159050919050565b6124848161246f565b82525050565b600060208201905061249f600083018461247b565b92915050565b600081519050919050565b600082825260208201905092915050565b60005b838110156124df5780820151818401526020810190506124c4565b60008484015250505050565b6000601f19601f8301169050919050565b6000612507826124a5565b61251181856124b0565b93506125218185602086016124c1565b61252a816124eb565b840191505092915050565b6000602082019050818103600083015261254f81846124fc565b905092915050565b6000819050919050565b61256a81612557565b811461257557600080fd5b50565b60008135905061258781612561565b92915050565b6000602082840312156125a3576125a26123e0565b5b60006125b184828501612578565b91505092915050565b600073ffffffffffffffffffffffffffffffffffffffff82169050919050565b60006125e5826125ba565b9050919050565b6125f5816125da565b82525050565b600060208201905061261060008301846125ec565b92915050565b61261f816125da565b811461262a57600080fd5b50565b60008135905061263c81612616565b92915050565b60008060408385031215612659576126586123e0565b5b60006126678582860161262d565b925050602061267885828601612578565b9150509250929050565b600082825260208201905092915050565b600061269e826124a5565b6126a88185612682565b93506126b88185602086016124c1565b6126c1816124eb565b840191505092915050565b600060ff82169050919050565b6126e2816126cc565b82525050565b7f4e487b7100000000000000000000000000000000000000000000000000000000600052602160045260246000fd5b60058110612728576127276126e8565b5b50565b600081905061273982612717565b919050565b60006127498261272b565b9050919050565b6127598161273e565b82525050565b600481106127705761276f6126e8565b5b50565b60008190506127818261275f565b919050565b600061279182612773565b9050919050565b6127a181612786565b82525050565b60006080830160008301516127bf6000860182612750565b50602083015184820360208601526127d78282612693565b915050604083015184820360408601526127f18282612693565b91505060608301516128066060860182612798565b508091505092915050565b600060a083016000830151848203600086015261282e8282612693565b915050602083015161284360208601826126d9565b50604083015161285660408601826126d9565b50606083015161286960608601826126d9565b506080830151848203608086015261288182826127a7565b9150508091505092915050565b600060208201905081810360008301526128a88184612811565b905092915050565b6000806000606084860312156128c9576128c86123e0565b5b60006128d78682870161262d565b93505060206128e88682870161262d565b92505060406128f986828701612578565b9150509250925092565b600080fd5b600080fd5b7f4e487b7100000000000000000000000000000000000000000000000000000000600052604160045260246000fd5b612945826124eb565b810181811067ffffffffffffffff821117156129645761296361290d565b5b80604052505050565b60006129776123d6565b9050612983828261293c565b919050565b600067ffffffffffffffff8211156129a3576129a261290d565b5b6129ac826124eb565b9050602081019050919050565b82818337600083830152505050565b60006129db6129d684612988565b61296d565b9050828152602081018484840111156129f7576129f6612908565b5b612a028482856129b9565b509392505050565b600082601f830112612a1f57612a1e612903565b5b8135612a2f8482602086016129c8565b91505092915050565b600060208284031215612a4e57612a4d6123e0565b5b600082013567ffffffffffffffff811115612a6c57612a6b6123e5565b5b612a7884828501612a0a565b91505092915050565b612a8a816126cc565b8114612a9557600080fd5b50565b600081359050612aa781612a81565b92915050565b60008060008060808587031215612ac757612ac66123e0565b5b6000612ad587828801612578565b9450506020612ae687828801612a98565b9350506040612af787828801612a98565b9250506060612b0887828801612a98565b91505092959194509250565b600060208284031215612b2a57612b296123e0565b5b6000612b388482850161262d565b91505092915050565b612b4a81612557565b82525050565b6000602082019050612b656000830184612b41565b92915050565b612b748161246f565b8114612b7f57600080fd5b50565b600081359050612b9181612b6b565b92915050565b60008060408385031215612bae57612bad6123e0565b5b6000612bbc8582860161262d565b9250506020612bcd85828601612b82565b9150509250929050565b600067ffffffffffffffff821115612bf257612bf161290d565b5b612bfb826124eb565b9050602081019050919050565b6000612c1b612c1684612bd7565b61296d565b905082815260208101848484011115612c3757612c36612908565b5b612c428482856129b9565b509392505050565b600082601f830112612c5f57612c5e612903565b5b8135612c6f848260208601612c08565b91505092915050565b60008060008060808587031215612c9257612c916123e0565b5b6000612ca08782880161262d565b9450506020612cb18782880161262d565b9350506040612cc287828801612578565b925050606085013567ffffffffffffffff811115612ce357612ce26123e5565b5b612cef87828801612c4a565b91505092959194509250565b600080fd5b600080fd5b60058110612d1257600080fd5b50565b600081359050612d2481612d05565b92915050565b60048110612d3757600080fd5b50565b600081359050612d4981612d2a565b92915050565b600060808284031215612d6557612d64612cfb565b5b612d6f608061296d565b90506000612d7f84828501612d15565b600083015250602082013567ffffffffffffffff811115612da357612da2612d00565b5b612daf84828501612a0a565b602083015250604082013567ffffffffffffffff811115612dd357612dd2612d00565b5b612ddf84828501612a0a565b6040830152506060612df384828501612d3a565b60608301525092915050565b60008060408385031215612e1657612e156123e0565b5b600083013567ffffffffffffffff811115612e3457612e336123e5565b5b612e4085828601612a0a565b925050602083013567ffffffffffffffff811115612e6157612e606123e5565b5b612e6d85828601612d4f565b9150509250929050565b6000608083016000830151612e8f6000860182612750565b5060208301518482036020860152612ea78282612693565b91505060408301518482036040860152612ec18282612693565b9150506060830151612ed66060860182612798565b508091505092915050565b60006020820190508181036000830152612efb8184612e77565b905092915050565b60008060408385031215612f1a57612f196123e0565b5b6000612f288582860161262d565b9250506020612f398582860161262d565b9150509250929050565b7f4e487b7100000000000000000000000000000000000000000000000000000000600052602260045260246000fd5b60006002820490506001821680612f8a57607f821691505b602082108103612f9d57612f9c612f43565b5b50919050565b7f4552433732313a20617070726f76616c20746f2063757272656e74206f776e6560008201527f7200000000000000000000000000000000000000000000000000000000000000602082015250565b6000612fff6021836124b0565b915061300a82612fa3565b604082019050919050565b6000602082019050818103600083015261302e81612ff2565b9050919050565b7f4552433732313a20617070726f76652063616c6c6572206973206e6f7420746f60008201527f6b656e206f776e6572206f7220617070726f76656420666f7220616c6c000000602082015250565b6000613091603d836124b0565b915061309c82613035565b604082019050919050565b600060208201905081810360008301526130c081613084565b9050919050565b7f47726176654e46543a20546f6b656e20646f6573206e6f742065786973740000600082015250565b60006130fd601e836124b0565b9150613108826130c7565b602082019050919050565b6000602082019050818103600083015261312c816130f0565b9050919050565b7f4552433732313a2063616c6c6572206973206e6f7420746f6b656e206f776e6560008201527f72206f7220617070726f76656400000000000000000000000000000000000000602082015250565b600061318f602d836124b0565b915061319a82613133565b604082019050919050565b600060208201905081810360008301526131be81613182565b9050919050565b60008190508160005260206000209050919050565b60006020601f8301049050919050565b600082821b905092915050565b6000600883026132277fffffffffffffffffffffffffffffffffffffffffffffffffffffffffffffffff826131ea565b61323186836131ea565b95508019841693508086168417925050509392505050565b6000819050919050565b600061326e61326961326484612557565b613249565b612557565b9050919050565b6000819050919050565b61328883613253565b61329c61329482613275565b8484546131f7565b825550505050565b600090565b6132b16132a4565b6132bc81848461327f565b505050565b5b818110156132e0576132d56000826132a9565b6001810190506132c2565b5050565b601f821115613325576132f6816131c5565b6132ff846131da565b8101602085101561330e578190505b61332261331a856131da565b8301826132c1565b50505b505050565b600082821c905092915050565b60006133486000198460080261332a565b1980831691505092915050565b60006133618383613337565b9150826002028217905092915050565b61337a826124a5565b67ffffffffffffffff8111156133935761339261290d565b5b61339d8254612f72565b6133a88282856132e4565b600060209050601f8311600181146133db57600084156133c9578287015190505b6133d38582613355565b86555061343b565b601f1984166133e9866131c5565b60005b82811015613411578489015182556001820191506020850194506020810190506133ec565b8683101561342e578489015161342a601f891682613337565b8355505b6001600288020188555050505b505050505050565b7f4552433732313a20696e76616c696420746f6b656e2049440000000000000000600082015250565b60006134796018836124b0565b915061348482613443565b602082019050919050565b600060208201905081810360008301526134a88161346c565b9050919050565b7f4552433732313a2061646472657373207a65726f206973206e6f74206120766160008201527f6c6964206f776e65720000000000000000000000000000000000000000000000602082015250565b600061350b6029836124b0565b9150613516826134af565b604082019050919050565b6000602082019050818103600083015261353a816134fe565b9050919050565b7f47726176654e46543a2055524920717565727920666f72206e6f6e657869737460008201527f656e7420746f6b656e0000000000000000000000000000000000000000000000602082015250565b600061359d6029836124b0565b91506135a882613541565b604082019050919050565b600060208201905081810360008301526135cc81613590565b9050919050565b600081905092915050565b60006135e9826124a5565b6135f381856135d3565b93506136038185602086016124c1565b80840191505092915050565b600061361b82856135de565b915061362782846135de565b91508190509392505050565b7f4f776e61626c653a206e6577206f776e657220697320746865207a65726f206160008201527f6464726573730000000000000000000000000000000000000000000000000000602082015250565b600061368f6026836124b0565b915061369a82613633565b604082019050919050565b600060208201905081810360008301526136be81613682565b9050919050565b7f4552433732313a207472616e736665722066726f6d20696e636f72726563742060008201527f6f776e6572000000000000000000000000000000000000000000000000000000602082015250565b60006137216025836124b0565b915061372c826136c5565b604082019050919050565b6000602082019050818103600083015261375081613714565b9050919050565b7f4552433732313a207472616e7366657220746f20746865207a65726f2061646460008201527f7265737300000000000000000000000000000000000000000000000000000000602082015250565b60006137b36024836124b0565b91506137be82613757565b604082019050919050565b600060208201905081810360008301526137e2816137a6565b9050919050565b7f4f776e61626c653a2063616c6c6572206973206e6f7420746865206f776e6572600082015250565b600061381f6020836124b0565b915061382a826137e9565b602082019050919050565b6000602082019050818103600083015261384e81613812565b9050919050565b7f4552433732313a20617070726f766520746f2063616c6c657200000000000000600082015250565b600061388b6019836124b0565b915061389682613855565b602082019050919050565b600060208201905081810360008301526138ba8161387e565b9050919050565b7f4552433732313a207472616e7366657220746f206e6f6e20455243373231526560008201527f63656976657220696d706c656d656e7465720000000000000000000000000000602082015250565b600061391d6032836124b0565b9150613928826138c1565b604082019050919050565b6000602082019050818103600083015261394c81613910565b9050919050565b7f4e487b7100000000000000000000000000000000000000000000000000000000600052601260045260246000fd5b600081519050919050565b600082825260208201905092915050565b60006139a982613982565b6139b3818561398d565b93506139c38185602086016124c1565b6139cc816124eb565b840191505092915050565b60006080820190506139ec60008301876125ec565b6139f960208301866125ec565b613a066040830185612b41565b8181036060830152613a18818461399e565b905095945050505050565b600081519050613a3281612416565b92915050565b600060208284031215613a4e57613a4d6123e0565b5b6000613a5c84828501613a23565b91505092915050565b7f4552433732313a206d696e7420746f20746865207a65726f2061646472657373600082015250565b6000613a9b6020836124b0565b9150613aa682613a65565b602082019050919050565b60006020820190508181036000830152613aca81613a8e565b9050919050565b7f4552433732313a20746f6b656e20616c7265616479206d696e74656400000000600082015250565b6000613b07601c836124b0565b9150613b1282613ad1565b602082019050919050565b60006020820190508181036000830152613b3681613afa565b905091905056fea26469706673582212206a2bcbc05b54c1215a60d56316ad607a3ad79e0a11d6fe808a5c0d42159b994664736f6c63430008130033",
  "linkReferences": {},
  "deployedLinkReferences": {}
}